:100000000C9434000C9451000C9451000C94510049
:100010000C9451000C9451000C9451000C9451001C
:100020000C9451000C9451000C9451000C9451000C
:100030000C9451000C9451000C9451000C945100FC
:100040000C9451000C9451000C9451000C945100EC
:100050000C9451000C9451000C9451000C945100DC
:100060000C9451000C94510011241FBECFEFD8E026
:10007000DEBFCDBF11E0A0E0B1E0ECE7F5E002C0EB
:1000800005900D92AC32B107D9F721E0ACE2B1E0B6
:1000900001C01D92AE32B207E1F70E94FC000C9441
:1000A000BC020C94000085B940984198429A82E0C5
:1000B0008A95F1F700C0429887EC90E00197F1F73C
:1000C00000C0000008958FEF84B987B942988FE986
:1000D0009FE00197F1F700C0000088E30E94530001
:1000E0008EE00E94530081E00E9453008FE99FE060
:1000F0000197F1F700C0000086E00E9453000895C8
:10010000CF93DF9300D0CDB7DEB790E8998390EC22
:100110009A83613029F410922D0110922C0108C0AD
:10012000623031F428E030E030932D0120932C012F
:10013000FE01E60FF11D81509081890F0E9453004E
:1001400087EC90E00197F1F700C000000F900F904E
:10015000DF91CF910895CF93C82F80912C0190917A
:100160002D01089731F462E070E081E090E00E9498
:10017000800080912C0190912D01409769F481E0DD
:100180000E94530061E070E081E090E00E948000F6
:1001900010922D0110922C01C5B9409A4198429AB3
:1001A00082E08A95F1F700C0429887EC90E00197D1
:1001B000F1F700C0000080912C0190912D01019673
:1001C00090932D0180932C01CF9108950F931F934D
:1001D000CF93FC018081882359F08F01C0E00E94F9
:1001E000AB00CF5FF801EC0FF11D80818111F7CFDB
:1001F000CF911F910F910895CF93DF93CDB7DEB7C5
:100200002F970FB6F894DEBF0FBECDBF19821A82AA
:100210001B828CE0E0E0F1E0DE01149601900D928B
:100220008A95E1F70E9463008FE08AB98FE78BB966
:10023000DE01119623E00F2EFEE7EF2EF02DF12CBC
:100240001DE771E06BE752E047E733E08BB1807761
:100250008BB989B180778037C9F78FE39CE9019723
:10026000F1F700C0000089B180778037B1F38FE3E8
:100270009CE90197F1F700C0000089B180778037D1
:1002800061F3EBB88FEC97E00197F1F700C0000045
:1002900099B19077903709F51BB98FE19EE40197EA
:1002A000F1F700C0000099B190779037C1F46BB9B5
:1002B0008FE19EE40197F1F700C0000099B19077BB
:1002C000903779F44BB98FE19EE40197F1F700C0C4
:1002D000000099B19077832F05C08F2D03C0872F21
:1002E00001C0852F903679F490E0FC01EE0FFF1FDE
:1002F0008E0F9F1FE1E0F0E0EC0FFD1FE80FF91FEC
:1003000083818C9321C0903579F490E0FC01EE0F4D
:10031000FF1F8E0F9F1FE1E0F0E0EC0FFD1FE80FC5
:10032000F91F84818C9310C0903371F490E0FC012C
:10033000EE0FFF1F8E0F9F1FE1E0F0E0EC0FFD1F9F
:10034000E80FF91F85818C93213011F59FEF20E78D
:1003500082E0915020408040E1F700C0000061E061
:1003600081E00E9480008CE091E00E94E6009FEF17
:1003700022E587E0915020408040E1F700C0000076
:1003800081E00E94530061E081E00E94800004C08F
:100390002150119621115ACF10E0F12C0F2EFEE7BB
:1003A000DF2EF02DC12C0F2EFDE77F2EF02DEE2439
:1003B000E3940F2EFBE78F2EF02D6894992491F88B
:1003C0000F2EF7E7AF2EF02D0F2EF3E0BF2EF02DFE
:1003D0008BB180778BB989B180778037C9F78FE38C
:1003E0009CE90197F1F700C0000089B18077803760
:1003F000B1F38FE39CE90197F1F700C0000089B1E8
:100400008077803761F3DBB88FEC97E00197F1F7E5
:1004100000C0000089B18077803709F57BB88FE193
:100420009EE40197F1F700C0000089B18077803722
:10043000C1F48BB88FE19EE40197F1F700C0000092
:1004400089B18077803779F4ABB88FE19EE401976A
:10045000F1F700C0000089B180779B2D05C09C2D6D
:1004600003C09E2D01C0992D803691F4892F90E014
:10047000FC01EE0FFF1F8E0F9F1FE1E0F0E0EC0F7D
:10048000FD1FE80FF91F0381802F0E94AB0027C0DA
:10049000803591F4892F90E0FC01EE0FFF1F8E0F45
:1004A0009F1FE1E0F0E0EC0FFD1FE80FF91F048152
:1004B000802F0E94AB0013C0803389F4892F90E015
:1004C000FC01EE0FFF1F8E0F9F1FE1E0F0E0EC0F2D
:1004D000FD1FE80FF91F0581802F0E94AB00E1E0AE
:1004E000F0E0EC0FFD1FE10FF11D808108133FC00C
:1004F000F3941F5F133009F06BCF9FEF20E782E08A
:10050000915020408040E1F700C0000093E0F912D4
:1005100009C06E2D8E2D0E94800089E191E00E941D
:10052000E60008C06E2D8E2D0E94800081E291E0D1
:100530000E94E6002FEF82E597E021508040904036
:10054000E1F700C000008E2D0E9453006E2D8E2D0D
:100550000E94800010E0F12C3BCF2FEF80E792E06B
:10056000215080409040E1F700C00000DBCF1F5FCA
:0C057000133099F3F12C2CCFF894FFCF3E
:10057C003132333435363738392A3023506173737E
:10058C0020456E746572656400436F7272656374A6
:0C059C0000496E636F72726563740000AA
:00000001FF
